:020000040000FA
:10000000A80B002085010000855A00005350000015
:1000100000000000000000000000000000000000E0
:10002000000000000000000000000000A55B0000D0
:100030000000000000000000895A00004912000082
:1000400097010000000000009701000097010000E8
:100050009701000097010000970100009701000040
:1000600000000000E9220000970100009701000055
:1000700097010000970100009701000000000000B8
:100080005D5F00000000000000000000970100001C
:100090000000000097010000970100009701000098
:1000A00097010000970100009701000097010000F0
:1000B00097010000000000000000000000000000A8
:1000C00000F002F800F032F80CA030C8083824180C
:1000D0002D18A246671EAB4654465D46AC4201D180
:1000E00000F024F87E460F3E0FCCB6460126334280
:1000F00000D0FB1AA246AB46334318473C760000BB
:100100005C7600000023002400250026103A01D36D
:1001100078C1FBD8520700D330C100D50B607047BF
:100120001FB500F01BF91FBD10B510BD01F002F89E
:100130001146FFF7F5FF06F0F5FF01F01AF803B4DA
:10014000FFF7F2FF03BC01F04DF8000070B5054663
:100150000C46164602E00FCC0FC5103E102EFAD208
:10016000082E02D303CC03C5083E042E07D301CCCE
:1001700001C5361F03E021782970641C6D1C761EB2
:10018000F9D270BD0748804707480047FEE7FEE701
:10019000FEE7FEE7FEE7FEE704480549054A064B91
:1001A00070470000595F0000C1000000A805002052
:1001B000A80B0020A8070020A807002001E004C029
:1001C000091F0429FBD28B0701D50280801CC907B7
:1001D00000D00270704700290BD0C30702D0027014
:1001E000401C491E022904D3830702D50280801CCB
:1001F000891EE3E70022EEE70022DFE70022030981
:100200008B422CD3030A8B4211D300239C464EE031
:1002100003460B433CD4002243088B4231D30309ED
:100220008B421CD3030A8B4201D394463FE0C3099F
:100230008B4201D3CB01C01A524183098B4201D3B7
:100240008B01C01A524143098B4201D34B01C01AA2
:10025000524103098B4201D30B01C01A5241C3081A
:100260008B4201D3CB00C01A524183088B4201D389
:100270008B00C01A524143088B4201D34B00C01A75
:100280005241411A00D201465241104670475DE08A
:10029000CA0F00D04942031000D34042534000220D
:1002A0009C4603098B422DD3030A8B4212D3FC22B6
:1002B000890112BA030A8B420CD3890192118B4235
:1002C00008D3890192118B4204D389013AD092114B
:1002D00000E08909C3098B4201D3CB01C01A524106
:1002E00083098B4201D38B01C01A524143098B42CF
:1002F00001D34B01C01A524103098B4201D30B01B8
:10030000C01A5241C3088B4201D3CB00C01A5241DC
:1003100083088B4201D38B00C01A5241D9D24308C3
:100320008B4201D34B00C01A5241411A00D2014600
:10033000634652415B10104601D34042002B00D56A
:100340004942704763465B1000D3404201B500202C
:10035000C046C04602BD70477047704770B5064C36
:100360007C44064D7D4403E0206800198047241D2D
:10037000AC42F9D170BD0000F4730000F4730000CA
:10038000F0B50C46871A9C410D46861A9D4103D252
:10039000C01BA141D21963410D0D1F0DC94EEC1BAD
:1003A000AE435CD07F057F0D0026002F51D02D0578
:1003B000AC46A943DD020123ED0A1B051D432023A2
:1003C0001B1B24D41746E740381871412F46E740DD
:1003D000CC199D402818314661410C0D27D161444C
:1003E0009A4013D50023401C594152000ED14008B9
:1003F000400001224B005205D34207D3052040079D
:10040000C14201D5B04900E0B0493046F0BD6B00B3
:10041000002A00D001229A181F23203C1B1B01D563
:10042000002302E0E540281871410C0DD7D00124CB
:1004300024050919C407CD0740084908E40F2843DB
:100440006144002CD5D00024401C61419A40D0D199
:10045000CDE76A05520DD9D1C90FC907D5E79C4D23
:100460004E00002801D0012400E0002434195F0070
:10047000002A01D0012600E00026BE19954FAC42AB
:100480000CD8AE420AD8B44206D001256D05EC4224
:10049000BCD010461946F0BD9942FCD00020394628
:1004A000F0BDF0B51FB40C460F46811A9F4125469A
:1004B000861A9D4106D20125ED076F40401ABC41C6
:1004C00052187B41210D1E0D8D1BAC467D4D8D4379
:1004D0007ED075056D0D7CD00D05AE46AC431B037B
:1004E0001B0B794D52429D41202366469B1B14D322
:1004F0001746F740381800260090744160462F4692
:100500000741E41900989D402818664116D47146A9
:1005100071189A4025D5012320E093182A466A4194
:100520005200002B00D0521C1E23203E9B1B002B90
:1005300061DD3541EE1728186641E8D5001876418F
:100540005B1C9A4000D3401C4B05F3181524E34074
:1005500010D3002B52D071467118D30FC01802D39C
:10056000491C05B0F0BD0123DB079A42F9D14008D0
:100570004000F6E701225205B21801D1002853D0FD
:100580000123CC0ADB029943891E002A08D1020C00
:1005900003D0020C0004103902E00246002020398A
:1005A0000023550B05D112020823550B01D152012E
:1005B0000D23550C01D112011B1DD50C01D1920048
:1005C0009B1C150D01D152005B1C2025EE1A01E089
:1005D0002CE022E00546F54015439840CA1AE10791
:1005E00069181305C918002ABBDA03204007081848
:1005F000C10FC9070FE071466118B2E7F107400863
:100600000843711071444A000CD001235B059A42E3
:10061000A7D2C90FC9070020A3E74905490D26D174
:10062000002001E00028F4D100219AE7284D66005F
:10063000002801D0012100E0002171185F00002A8C
:1006400001D0012600E00026BE19224FA94210D891
:10065000AE420ED8B14208D001256D05E94206D060
:100660001946A802414010467BE79C4201D0214632
:1006700077E70020394674E710B50C465C4005D595
:100680000124E4076340FFF70CFF10BDFFF778FE7D
:1006900010BD30B40C465C4004D50124E40763402F
:1006A00030BC6DE630BCFCE670B50124E407614067
:1006B0000D465D4002D4FFF763FE70BD6340FFF757
:1006C000F0FE70BDFF0700000000F0FF0000F07FAB
:1006D0000000E0FF0000F87FF0B5F94D0C091E099D
:1006E0002C402E402F468BB0A7437DD0B543FCD085
:1006F000002E7AD0002CFCD00D465D40ED0F254336
:10070000AC1BFF25AD0464190894C502440DC90251
:100710002143500DDC0204430120C0070143044380
:10072000D2020191200C110C00958C460104234645
:100730008B430A9161460904E24D8A430991010AFB
:100740007D4449198039097805464D4301266D18C5
:10075000F605751B6943C90C640B891C4C4364186E
:10076000B5012C1B250C2E04B4434C434D43210CE6
:10077000691889090591009DE90701D00121C90780
:1007800004912C4601996708CD072F434C08059D1D
:10079000E10B4D432D0C29466646754302950D46E7
:1007A00045432E46029D7D1BB44100950D465D4399
:1007B00001942C0C2F040D465543AE462D0C3D43A1
:1007C000029503947546049C2D04641B049406D280
:1007D000029C039D641C002675410395029401ACA4
:1007E00070CC009F7D1B01E03EE162E1B441090451
:1007F0000095079101940599A4086143090C0C46E2
:100800004443650BE7040C4666467443A646640BF6
:100810003C43039502947446049DE4042C1B049409
:1008200006D2029C039D641C002675410395029428
:1008300001AC70CC009F7D1BB44101940C465C431D
:100840000095650FE7000C465443A646640F3C43F1
:10085000039502947446049DE4002C1B049406D274
:10086000029C039D641C002675410395029401AC13
:1008700070CC009F7D1BB441AE09AF06049DC9003A
:10088000AD092F43049DA406AD060495079D34438E
:1008900069180791059DE10B4D432D0C29466646CD
:1008A000754302950D4645432E46029D7D1BB4417E
:1008B00000950D465D4301942C0C2F040D465543C5
:1008C000AE462D0C3D43029503947546049C2D04C1
:1008D000641B049406D2029C039D641C002675418F
:1008E0000395029401AC70CC009F7D1BB441019430
:1008F0008C050694079C890A611800950791019C54
:100900000599A4086143090C0D464543680BEF04A3
:100910000D46644665436C0B3C43049FED047D1B10
:10092000AC4602D20025641C6841009E019D371B25
:1009300085410846584301950C46460FC50054436F
:10094000600F28436546E4002C1B02D20025401CA2
:100950006E41019D3F1AB5412846BD0980062843D6
:100960008446A009BF064E020699A40676180743DE
:10097000079D002068410A99079019430020099BB0
:1009800000906046FF1913434041E20F64003A4370
:10099000A4460446D71A8C41A04203D901200090F6
:1009A00020463A46C70F941840416246D20F224370
:1009B000644664000494009CBE466400D71AA446B2
:1009C000044602978C417746002F01D1A04204D9FA
:1009D0006046401C8446029A2046C40FA6469418DE
:1009E0004041049A0546D20F224364466400D31A5C
:1009F0008D417146002901D1A84202D928461A46E4
:100A0000641C10430122002800D01643610200201C
:100A1000079B891904465C410223002C02DB49181C
:100A200013466441089DCE0A2D145D194B056705D8
:100A3000E10A2C050D1908993E43C9076940002BAE
:100A400008D0934006D30022761C5141002B01D1DF
:100A5000760876001C4A002D43DB154241D0AA439C
:100A60003FD030460BB0F0BD06180D464D41174C37
:100A70007642AC411AD395181C465C41134A6D422C
:100A8000A24113D3012252054C00D4420AD15C008A
:100A9000D4420BD04B4002D592021143E2E7490009
:100AA0004908DFE75940C90FC90718E00020084985
:100AB000D8E7054801420DD10342F7D0F2E7000024
:100AC0000000FF07346F00000000F07F0000E0FF2F
:100AD0000000F87F114859400143C01241400020F6
:100AE000C0E70123089A9B069A4205DC03225207BD
:100AF0008918C90FC907B5E7052252078918074A9F
:100B00001143D2125140ADE770B515461C4602465E
:100B10000B4628462146FFF7DFFD70BDFFFFFF7F34
:100B200030B50346CA02400D1043164D164C0A1547
:100B300002D02043002A06DBAA1A002A12DDD04088
:100B4000FF2A0BDC30BD5205520D01D14000400898
:100B5000AA1A07D4D0404042FF2A01DD002030BD50
:100B60000028FCDD4A00002B01D0012000E000201D
:100B7000101801225205D042F0D8C817C043604077
:100B800030BD00001E040000000000801F22030C86
:100B900002D10F22000402D0030E03D004E0002093
:100BA000014670470002083A030F01D10001121FED
:100BB000830F01D18000921E002801DB4000521EED
:100BC000120551184205C012411810467047C10F56
:100BD000C90700D04042012292071143D6E7012104
:100BE0008907D3E7F0B58B4C0F09254689B0BD4383
:100BF0007BD01D092646AE43FAD00E465E40274004
:100C0000F60F3E43254071D024012142FBD0FF2442
:100C1000AD19A4042D1B039501252D05DB02DB0A6C
:100C2000C9022B43C90A29431E010901040F130FEE
:100C3000050121431701880B820391432D098C463E
:100C4000A90B1E438A039543B30B9A0396433F09AE
:100C5000BA0B9403A74302962E467E430497B646EA
:100C60004E19D7190C460196544305977E43371BFE
:100C70007646BF1B3601B646BE0B36190096764641
:100C8000BC043719009C01D3641C00946400002F3D
:100C900001D001263443029E049F754366467E437D
:100CA0000496760034196E0034190094029C019E5B
:100CB0001C196643751BAE46069465464519059C8E
:100CC00005956C43594375460891691A0191049E34
:100CD00001465143A41B0491611A009C0791E1064F
:100CE00005D061090122114302E072E06EE0610962
:100CF000089D00272C0A2D066918049D7C412A0AAC
:100D00002D066918019D6241AC0DAD026D1854416C
:100D1000079A910D920255196141029A644658430F
:100D20005443069B059A5A43121A131B9A0E9B01B1
:100D30005B187A41010B0005C3185141220A2006B5
:100D400044195A419A4200D2491C01204002814272
:100D500003D315230226F64302E014230326F643A9
:100D60002020C51AA9401746AF40DA400A43204662
:100D70000399D8400914731819055118039A384378
:100D8000D2075140AC4009D00122944006D3002242
:100D9000401C5141002C01D1400840001E4A9342A2
:100DA00012D3012203989206904207DB05204007E8
:100DB00009181A480143C012414004E003204007CB
:100DC0000818C10FC907002009B0F0BD0020F107C5
:100DD000FAE705180C464C4111486D42A04115D365
:100DE00094181A465A410E48644290410ED301208D
:100DF0004A004005824209D35A00824206D3594034
:100E0000C90F084AC90700201143DDE70020064941
:100E1000DAE700000000FF07FE070000FFFFFF7F8A
:100E20000000E0FF0000F07F0000F87FF0B5FF2534
:100E30002D04C609C209FF2704462E400137CB09FD
:100E40003E4348402A402B400746002A6BD0002BE7
:100E500069D0AA4267D0AB4265D0002800DA32469A
:100E60000125ED0529432C4309022002090AD21A63
:100E70004B0C7F24E31A434C000A7C44E35C7D2442
:100E80002404121914145B00A218884201D3521CC6
:100E900000E0400049420C465C4324115C43DB0106
:100EA0006415E318040A5C43C502200D0C46444354
:100EB0006419250A5D432303EC0C0D4665430003CA
:100EC0000019EB184C42A34201D35B18401CD40517
:100ED0002018002B07D05B00C91804D3401C002940
:100EE00001D1400840003F2189048A4209D3002AE9
:100EF00008DC1106090F04D0032149074018C00F70
:100F0000C007F0BD01224100120689187F22520657
:100F10009142F6D205214907C84201D59010F0BD93
:100F2000FF20C005F0BD002F00DA32461648AA4265
:100F300007D2AB4205D21902090E17D0F80FC0072D
:100F4000F0BDFF2563002D06AB42F9D84900A94248
:100F5000F6D8AB4201D1A942F2D0A94201D1002179
:100F600001E061004908D0050843F0BD1102090EF7
:100F7000FBD0FF200243D005F0BD0A4601461046D3
:100F800054E700007A6800000000C07F1F22030CB5
:100F900002D10F2200041CD0030E01D10002083A36
:100FA000030F01D10001121F830F01D18000921E97
:100FB000002801DB4000521ED205511802125118C0
:100FC0001922904004D3491C002801D14908490046
:100FD00008467047C10FC90700D04042012292075E
:100FE0001143D3E701218907D0E70000F8B5224C6F
:100FF0004E00069DA6420AD8A64201D1002806D17D
:101000005E00A64203D8A6420AD1002A08D00D24C9
:10101000240425422CD02946002000F061F8F8BDB8
:101020000C461C430CD4994202D0EFF30080F8BD6B
:10103000904202D0EFF30080F8BDEFF30080F8BDDE
:1010400009242407E5008B4206D0EFF30080A0437B
:10105000591A06D2284304E0101A05D3EFF3008092
:10106000A04380F30088F8BDEFF30080A043F1E7D0
:10107000009500F04DF8F8BD0000E0FF10B5FF232B
:101080001B0644009C421DD84C009C421AD80346C3
:10109000124A0B4307D4401A02D3EFF3008010BD6D
:1010A000EFF3008010BD081A06D2EFF30080012193
:1010B0009043C907084302E0EFF30080904380F3B8
:1010C000008810BD0D231B041A4204D011460020D5
:1010D00000F006F810BD00F025F810BD00000090EB
:1010E000CA0211D54A03520F002A04D0C803C043D4
:1010F000012188407047054AEFF30081080100098B
:10110000104380F3008870470020704700000030D3
:1011100010B500200249029A00F031F810BD00001D
:101120000000F87F10B5024800F029F810BD00005B
:101130000000C07F754600F051F8AE4605006946D4
:101140005346C008C000854618B020B5FFF724F804
:1011500060BC00274908B6460026C0C5C0C5C0C54A
:10116000C0C5C0C5C0C5C0C5C0C5403D49008D464D
:1011700070470446C046C0462046FEF7E0FF10B563
:101180000C461107090F092904D00A290AD0082999
:101190000CD104E011460820FFF7A2FF06E051063B
:1011A00006D501E0510601D50120C007214610BD3A
:1011B000D10607D501010909CC084907000E000630
:1011C000044309E0410F20024907000A0143200EB1
:1011D00000061D22D14101430846E7E70048704759
:1011E0004405002001491820ABBEFEE7260002009E
:1011F000704770B58C180578401C6B075B0F01D1E8
:101200000378401C2A1106D10278401C03E00678BE
:10121000401C0E70491C5B1EF9D12B0705D400231E
:10122000521E0DD40B70491CFAE70378401CCB1AF0
:10123000921C03E01D780D70491C5B1C521EF9D5F1
:10124000A142D8D3002070BD10B50A48007801280B
:1012500004D109480078401C07490870012005495D
:10126000087006480068401C0449086002F0DEFD72
:1012700010BD00005001002051010020300100206D
:1012800008B5A84800788007800F032804D1002003
:10129000A549487004F092FDA3488078030005F04A
:1012A00029FE0A060A13617392B1D4E1FEFD012002
:1012B0009D49887033E19C482030007B002802D192
:1012C0000220994988702AE198480088401C974973
:1012D0000880084600889649884205DD002092492A
:1012E0004870924908801AE18E480078042838D165
:1012F00000208E4908808F480078002817D18E4939
:10130000C861411E8848403001770120800386492A
:10131000C8648A4848658A48886500204864032074
:10132000886404F089FA03207F49887019E000225C
:101330002021814801F07AF800207B49486401208F
:10134000800388640D2004F0A1FD7748406A0421E1
:10135000084375494862032004F06EFA0820724978
:101360008870DCE06F4800780221084002280AD12A
:1013700004F024FD6C48C06B6F4908606C48C8607D
:10138000042069498870CAE0664800780221084054
:1013900001280BD16848C0686A49884206DA664865
:1013A000C0687D21C90040186349C8605D48007865
:1013B00004210840042805D1032004F03DFA092047
:1013C00059498870ABE057480078C007C00F002823
:1013D00017D055482030007B032812D15248C06BEB
:1013E00055494860062050498870002004F024FACE
:1013F00000200346544A014600904B485C3004F0FC
:101400009FFC8CE048482030007B00281CD14648D7
:101410005C3004F013FD4D480068002808D101201D
:101420004A49086008204A4908600E2005F024FF58
:1014300007203D4988700D2004F028FD3A48406A95
:10144000042108433849486269E03648007804219D
:101450000840042805D1032004F0EEF908203249A1
:1014600088705CE02F48007802210840022828D1CB
:1014700000202D49487004F0A1FC7D21C9000D20F9
:1014800000F00CFE2848406D2749C8632A480068D0
:10149000C864294840684865274801E03EE011E0FB
:1014A000C06888650846406C234948610846406921
:1014B0001D4988647D20C00002F0AAFA0120254958
:1014C00008602CE018482030C07B002825D101207E
:1014D0001E490860C8201E4908600B2005F0CCFE9C
:1014E00000201149487004F069FC0F48C06B124994
:1014F0004860084600680C49C8640F484068486561
:101500000D48C068886502200B494861084640695B
:101510000549886401200F49086000E000BF00BF52
:1015200008BD0000CC0100201C0400208401002024
:10153000B80B00008101002084040020FF7F000020
:1015400060EA000028230000A0860100640100205A
:10155000680100200800002010B50121490305485A
:1015600002F008FC012802D100F006F801E000F0CA
:101570007BF910BD0008005008B5B34880780028FA
:1015800006D001287ED002287DD004287CD156E1E7
:10159000AD48407A012807D0AC480078002803D035
:1015A000A948007A012840D1A748807A00283CD178
:1015B000A7480078012838D1A348C079002834D141
:1015C00004F052FBA0482030C07B012818D19E486F
:1015D00060300078012824D004F0F0FB05F038FEDC
:1015E000994940311D200856401C002819D1994BBB
:1015F00064220121009094485D3004F0A1FB10E0CA
:1016000005F026FE904940311D200856401C002858
:1016100007D1904B6422012100908B485D3004F08B
:101620008FFB02208849887049E08748807A01282A
:1016300007D087480078002803D08348C079012864
:101640003DD1FF2004F010FB7F482030C07B0128F3
:1016500021D17D482030807B002804D07A4860303A
:101660000078032828D004F0A9FB05F0F1FD7649A5
:1016700040311D200856401C00281DD1764B6422A5
:10168000012102E01EE068E0DBE000906E485D3082
:1016900004F056FB10E005F0DBFD6B4940311D20E6
:1016A0000856401C002807D16B4B64220121009092
:1016B00065485D3004F044FB04206349887004F001
:1016C00059FBBFE060482030007B012816D15E48FE
:1016D0002030C07B002811D15B4940311D200856C5
:1016E000401C00280AD1009057485C4B0121826DB4
:1016F0005D3004F025FB04205349887052482030A7
:10170000007B002828D150482030C07B002823D1FE
:101710004D4940311D200856401C00281CD1012095
:101720004F4908704A480078002807D04648C079D9
:10173000012803D04448807A012802D10320484977
:10174000087005F085FD4648464BC82201210090EF
:101750003D485D3004F0F4FA74E03C48007800281D
:1017600007D03948007A012803D03748407A012849
:1017700025D137480078012821D13348C079002885
:101780001DD13148807A002819D12F48C06B2E49CD
:10179000C96C884233D02C482030C07B00282ED121
:1017A00001202F49087005F053FD2D482D4BC8220C
:1017B0000121009024485D3004F0C2FA1FE0244863
:1017C0000078002807D02048C079012803D01E489F
:1017D000807A012813D11C482030C07B002806D015
:1017E000194860300078012801D104F0E7FA05F0CB
:1017F0002FFD002003F0FCFF0420134988701248DD
:101800002030007B002819D10F482030C07B0028F1
:1018100014D10D4940311D200856401C00280DD11F
:1018200001200F49087005F013FD0D480D4BC8222B
:101830000121009004485D3004F082FA02E000BF0C
:1018400000E000BF00BF08BD1C0400205D010020B7
:101850005E01002009580000F1570000BD5700004C
:10186000D2010020BD23000008B59C488078030009
:1018700005F040FB050459B2FEFDFC0097482030FE
:10188000007B03284CD09548807A012813D09448D7
:10189000007800280FD09148C07901280BD08F48DC
:1018A000407A012807D08F480078002803D08B4861
:1018B000007A012834D189482030C07B012818D112
:1018C000864860300078002827D104F077FA05F0C8
:1018D000BFFC824940311D200856401C00281CD105
:1018E000814B6422012100907C485D3004F028FA8D
:1018F00013E001207D49087005F0AAFC77494031CA
:101900001D200856401C002807D1774B6422012176
:10191000009072485D3004F013FA03206F4988701C
:1019200004F028FAD8E06D482030007B012816D159
:101930006A482030C07B002811D1684940311D2001
:101940000856401C00280AD100906448684B0121C9
:10195000826D5D3004F0F4F90420604988705F48BE
:101960002030007B002836D15C482030C07B002826
:1019700031D15A482030007B00282CD157482030E4
:10198000C07B002827D1554940311D200856401CF6
:10199000002820D1012055490870514800780028BE
:1019A0000BD04E48C079012807D04C48807A0128D6
:1019B00003D04A48407A012802D103204B490870DD
:1019C00005F046FC49484B4BC82201210090434892
:1019D0005D3004F0B5F97FE041480078002813D06D
:1019E0003E48C07901280FD03C48807A01280BD0AE
:1019F0003A48407A012807D03A480078002803D0B6
:101A00003648007A012813D134482030C07B0028A2
:101A100006D0324860300078012801D104F0CEF9B8
:101A200005F016FC002003F0E3FE04202B4988702B
:101A30002A482030007B00281DD128482030C07B58
:101A4000002818D1254940311D200856401C002887
:101A500011D101202549087005F0FAFB2348254BD8
:101A6000C822012100901D485D3002E033E030E0E3
:101A700002E004F065F92FE018482030007B0128CF
:101A800011D1164940311D200856401C00280AD1AA
:101A900005F0DEFB002000901048174B0121826DFD
:101AA0005D3004F04DF90D482030007B00280FD147
:101AB0000A482030C07B00280AD105F0C9FB00206D
:101AC000009006480C4B0121826D5D3004F038F91E
:101AD00002E000BF00E000BF00BF08BD1C04002002
:101AE0005E0100205D01002009580000D2010020A5
:101AF000BD570000BD230000F157000010B5584845
:101B00000078C006C00E112828D006DC012809D0B4
:101B100002287DD0042820D13CE0122879D0142856
:101B2000F9D164E04F48C07B01280ED14D48807B3D
:101B3000002812D004F042F905F08AFB00234A4A3B
:101B40006421012004F0CEF807E005F081FB0023BA
:101B5000454A6421012004F0C5F87EE04148C07B7D
:101B600001280ED13F48807B002812D004F026F9CE
:101B700005F06EFB00233C4A6421012004F0B2F81A
:101B800007E005F065FB0023374A6421012004F0DB
:101B9000A9F862E03348C07B01280ED13148807B30
:101BA000012823D004F00AF905F052FB00232F4A44
:101BB0006421012004F096F818E02D48C06901283E
:101BC00003D12848007B022808D105F041FB0023FF
:101BD000264A6421012004F085F807E005F038FB6F
:101BE0000023224A6421012004F07CF835E01D48DE
:101BF000C07B012811D11B48807B012826D004F02E
:101C0000DDF805F025FB0023184A6421012001E0DE
:101C10001DE01FE004F066F818E01548C0690128CF
:101C200003D11048007B022808D105F011FB0023E6
:101C30000E4A6421012004F055F807E005F008FB86
:101C400000230A4A6421012004F04CF805E004F066
:101C5000B5F800BF04F0B2F800BF00BF10BD00002F
:101C6000CC0100203C04002021580000F157000066
:101C70008404002008B54A484088012807D0484815
:101C80004088022803D046484088042834D145487B
:101C900000780028FAD101204249087004F08EF83B
:101CA00041480078002803D04048007A012835D107
:101CB0003E48407A002831D13D48007801282DD196
:101CC0003A48C079002829D13848807A002825D19F
:101CD0003648C06B3549C96C884204DB3348203034
:101CE000007B012809D104F069F830485D3004F028
:101CF000A5F802202D49887051E004F05FF805F046
:101D0000A7FA00202B4B64220121009027485D3068
:101D100004F016F801202549887040E02348807AB5
:101D200001280BD022480078002807D01F48C0792E
:101D3000012803D01D48407A012830D11B48C06BD0
:101D40001A49C96C884204DB18482030007B0128FE
:101D500010D104F033F805F07BFA0020009013480E
:101D6000154B0121826D5D3003F0EAFF04200F491D
:101D7000887014E00D486030007801280FD004F01E
:101D80001DF805F065FA00200A4B6422012100903D
:101D900006485D3003F0D4FF01200449887008BD77
:101DA000A4040020D50100205D0100201C040020B7
:101DB0005E01002009580000F157000010B5002412
:101DC00023E014488168A000134A10586438814207
:101DD0001AD310488168A00010586430814213D88B
:101DE0001E2000F0DEFA0B488168A0000A4A105855
:101DF0006438814208D307488168A00010586430D5
:101E0000814201D8601C10BD641C072CD9DB002066
:101E1000F9E70000700200203401002010B5002412
:101E200023E01448C168A000134A10586438814266
:101E30001AD31048C168A00010586430814213D8EA
:101E40001E2000F0AEFA0B48C168A0000A4A1058E4
:101E50006438814208D30748C168A0001058643034
:101E6000814201D8601C10BD641C072CD9DB002006
:101E7000F9E70000700200203401002070B505462B
:101E8000AC6AA06D50210840002831D1A06D01211D
:101E900049020843A065206803F013FA002823D004
:101EA000A07E002820D1206800680821084008286A
:101EB0001AD1206803F0FFF900280DD1206840688E
:101EC0000C21884321684860A06DFF2101318843BF
:101ED00001210843A06507E0A06D20210843A0650B
:101EE000E06D01210843E065204601F0C5F90CE0F2
:101EF000A06D10210840002803D0204601F0C3F94E
:101F000003E0206D416B2846884770BD70B50546DB
:101F1000AC6AA06D40210843A065E06D0421084330
:101F2000E065204601F0AFF970BD70B50446A56AC2
:101F3000284601F0A7F970BD70B50446206803F08B
:101F40009DF90646206803F09FF9002837D0002E3F
:101F500035D12068806805210840012806D1206815
:101F600003F076F903202168086009E0A06D1021D4
:101F70000843A065E06D01210843E065012070BDC4
:101F800001F008FF054614E001F004FF401B0228A1
:101F90000FD920688068C007C00F002809D0A06D45
:101FA00010210843A065E06D01210843E065012090
:101FB000E5E720688068C007C00F0028E4D1002052
:101FC000DDE7000038B5044600200090206803F0EB
:101FD0005BF9002858D1206880682C490840002807
:101FE00009D0A06D10210843A065E06D01210843D0
:101FF000E065012038BD206803F032F9244803F081
:1020000037F90121C905084000280DD0214922488F
:102010000068FEF7F3F8401C009002E00098401EB4
:10202000009000980028F9D1607E01282CD001F0A2
:10203000B1FE05461FE0206803F026F9002802D112
:10204000206803F00DF901F0A5FE401B022812D90B
:1020500020680068C007C00F0121484048400028A0
:1020600009D1A06D10210843A065E06D012108434E
:10207000E0650120BEE720680068C007C00F0121AD
:10208000484048400028D6D00020B3E71700008021
:1020900008270140400D0300F801002030B502463A
:1020A00000201BE0142343430E4C1B191B7B93425F
:1020B00013D114234343E35C002B0DD101241423DB
:1020C0004343084DEC54142343432C461B19996099
:1020D000142343431B19596002E0401C0E28E1D32E
:1020E00000BF30BD140000207047000030B502462C
:1020F00000201CE0142343430F4C1B191B7B93420D
:1021000014D114234343E35C002B0ED10124142388
:102110004343094DEC54142343432C461B19996047
:102120000024142343435B195C6002E0401C0E282A
:10213000E0D300BF30BD00001400002010B50446FD
:102140000548C07FA04205D00348C47764210C2015
:1021500003F094FD10BD00005C04002010B50121C7
:102160008903184801F006FE00280BD116480168C3
:102170000068401C144A1060642909D900201349E2
:10218000087005E000201049086001200F49087020
:102190000121C9030B4801F0EDFD00280BD10C48CB
:1021A00001680068401C0A4A1060642909D90020AF
:1021B0000849087005E0002005490860012005492C
:1021C000087010BD000400509C0100205E0100203A
:1021D000A00100205D01002008B501214902374817
:1021E00001F0C8FD002825D135480078012833D1F9
:1021F0003448007801282FD13348407A00282BD169
:102200003148807A002827D103F032FE00202E4981
:102210004870042088702D4803F010FE2A48403092
:10222000407F002803D028485D3003F007FE03F00C
:10223000C5FD11E0264800788007800F03280BD1E8
:1022400000202149487004208870204803F0F6FDE2
:1022500003F00EFE03F0B2FD1D4800788007800FEA
:10226000032829D103F004FE03F09EFD142003F09F
:102270000DFE184900200856401C002802D00846D0
:1022800003F0DCFD0020144BAF22D20001210090AE
:10229000104803F055FD114900200856401C002845
:1022A00002D0084603F0CAFD00200D4B0D4A012163
:1022B00000900A4803F044FD08BD000000040050EF
:1022C0005D0100205E0100201C040020D0010020E0
:1022D000CC010020820100208151000083010020F8
:1022E0008B5A0000DC05000010B5024801F03AFAF4
:1022F00010BD0000F002002070B50446206C80087C
:102300008000094940186064217808460838142183
:10231000FDF774FF054604488030A064E906C90E45
:1023200001208840E06470BD0008024002799106F7
:10233000890E4A1E9200064BD2180265044A4032AA
:1023400042654A1E93079B0F01229A40826570479F
:102350000009024070B5856CC46C6C60046D002C83
:1023600002D0456D846D6C600C4C64681C26056C55
:1023700035400126AE403443084D6C60046863600C
:102380008468102C04D10468A2600468E16003E052
:102390000468A1600468E26070BD000000000240B3
:1023A000704770B50446002501F0F4FC054600BFF7
:1023B00001F0F0FC401BA042FAD370BD70B504469A
:1023C0002578284603F038FA70BD0000F8B50546B8
:1023D00000247D21C9002846FDF710FF06467D2117
:1023E000C9002846FDF70AFF8F0102E00120FFF730
:1023F000D8FF3046761E0028F8D10B488069C41BF0
:10240000002C0ADA08484069041900BF0648006930
:102410000121090408400028F8D000BF0248806963
:10242000A042FBD8F8BD000000E000E0F8B505468A
:102430000C461646009507483718A007800F00285D
:1024400000D0F8BDA2083846009903F037FB00BF62
:10245000F7E7000000F80008F8B504460D461646F8
:102460000094044837182A463846009903F03AFB8E
:10247000F8BD000000F8000810B5064800780028F4
:1024800007D101200349087000224021024801F0D1
:102490007AFC10BDD90100200004005038B5044674
:1024A00010491E200856401C002803D008461E3044
:1024B00003F0C4FC002C09D001200B490870112046
:1024C00003F0E4FC122003F0E1FC09E00020074BDC
:1024D000FF2291320121009002481E3003F030FCAF
:1024E00038BD00005C040020D8010020AD5C000075
:1024F00000BFFEE704494969012212040243114367
:10250000014A5161704700000020024010B50346A7
:10251000064A5269F824A2431046CA000124240442
:102520002243921C0243014C626110BD0020024014
:1025300010B50849496901242143064C61610260D4
:1025400000BF00BF00BFBFF36F8F00BF00BF00BF61
:10255000436010BD00200240F0B50246002314463F
:102560000D46114E76690127BF043E430E4F7E6132
:1025700000BFEFF31086304672B605E02E68266085
:102580002D1D241D5E1CF3B2402BF7D300BF064E59
:10259000366901273F043E40002EF8D100BF80F38A
:1025A000108800BFF0BD00000020024070B5044656
:1025B00001F0F0FB061901252D0405E001F0EAFB0E
:1025C000B04201D3032070BD1248006928400028A2
:1025D000F4D110480069104908400546481C0D49CF
:1025E0000861002D03D00D4845600120EBE701F0A4
:1025F000D1FB061905E001F0CDFBB04201D3032069
:10260000E1E7044800690121890408400028F2D16B
:1026100000BFD8E700200240FA8300002805002010
:1026200010B52B48406A002803D100F059F800F09B
:102630001DFA2748806A2649496A08402449886269
:102640000846406A002834D0084660304079401C73
:10265000C1B21F48603041714079052835DB052142
:102660001B48603041711B48007801280FD1184881
:10267000406A38210840002802D100F04BFA06E0F9
:1026800013482030C07B002801D100F043FA00F04D
:1026900027F800F0EBF9012210210F4801F073FB3D
:1026A0000B48406A0A49896A484000280DD000BF9B
:1026B0000BE00021064860304171002210210648DD
:1026C00001F061FB054803F0B9FB03F061FD10BDAB
:1026D0001C040020BC01002000040050BF010020A9
:1026E00010B5D648C068002851D1D448406A382176
:1026F000084000284BD1D1482030C07B012820D190
:10270000CE482030807B00281BD1CD4800680028AF
:1027100017D1CC480078012808D1C9490860142095
:10272000C94908600E2004F0A7FD0AE00120C54950
:102730000870C34908606420C3490860082004F099
:102740009BFDBE482030C07B012820D1BB482030F3
:10275000807B01281BD1BA480068002817D1BB48EC
:102760000078012808D1B64908601420B6490860ED
:102770000E2004F081FD0AE00120B4490870B04940
:1027800008606420B0490860092004F075FDAB487A
:102790002030C07B002807D000220121C90305207A
:1027A000000701F0F0FA0AE00020A8490870A549E6
:1027B00008700122D1030520000701F0E4FA9F48C8
:1027C000406A00282AD1A2480068012803D0A14805
:1027D000006800280BD000209D490860012098491E
:1027E0000860082098490860012004F045FD002297
:1027F0008021994801F0C7FA00224021964801F053
:10280000C2FA0122D1020520000701F0BCFA012220
:1028100011030520000701F0B6FAF9E08748406A85
:1028200005210840002803D020208C4908603DE0A5
:102830008248406A012109030840002803D0212072
:102840008649086032E07D48406AC021084000287F
:1028500003D022208149086028E07848406A8049F6
:102860000840002803D023207C4908601EE07348FC
:10287000406A38210840002803D0102077490860BA
:1028800014E06E48406AFF2101310840002803D05F
:1028900012207249086009E06848406A0121490233
:1028A0000840002802D011206C4908606348406A43
:1028B00005210840002804D100228021664801F04B
:1028C00062FA5E48406A38210840002804D100229C
:1028D0004021614801F057FA604800682021084013
:1028E00000280ED05F480068002805D10022802112
:1028F000594801F048FA04E001228021564801F0CD
:1029000042FA564800681021084000280ED0554869
:102910000068002805D1002240214F4801F033FA19
:1029200004E0012240214C4801F02DFA4B48006898
:1029300000286DD04948006820284AD047480068E0
:10294000102846D0454800780007000F002806D020
:10295000012811D002281DD0032838D128E00122F7
:1029600011030520000701F00EFA0122D102052013
:10297000000701F008FA2BE00022012109030520DD
:10298000000701F000FA0122D1020520000701F042
:10299000FAF91DE0012211030520000701F0F3F907
:1029A00000220121C9020520000701F0ECF90FE027
:1029B0000022012109030520000701F0E4F90022AB
:1029C0000121C9020520000701F0DDF900E000BF88
:1029D0001EE02448006800280ED1002201210903CE
:1029E0000520000701F0CFF900220121C9020520CE
:1029F000000701F0C8F90BE00122110305200007D0
:102A000001F0C1F90122D1020520000701F0BBF954
:102A100014480068401C13490860C007C00F0860D4
:102A20000648406A0B490968884202D001200E49D5
:102A300008700248406A0749086010BD1C04002065
:102A400064010020BD01002068010020BE010020BB
:102A500060010020B801002000080050AC010020F7
:102A6000020C0000B0010020BC01002010B5264877
:102A7000807901280CD101222021244801F083F91A
:102A80000022012189020520000701F07CF90AE0FB
:102A9000002220211D4801F076F901229102052033
:102AA000000701F070F918482030007B002806D09C
:102AB00001280AD0022809D0032813D10CE00122F2
:102AC0000821124801F05FF91CE000BF0122082133
:102AD0000F4801F058F915E0012204210C4801F0DB
:102AE00052F90FE000220421094801F04CF90022BC
:102AF0000821074801F047F900220821034801F0A6
:102B000042F900BF00BF10BD1C04002000040050AB
:102B1000000C005010B54948406A00287ED0484853
:102B2000006800287AD14548806A0028FAD14348D5
:102B3000406A38210840002813D042480078002815
:102B40000FD13F48006800280BD101203D49087093
:102B5000032004F091FB012039490860A0203A4984
:102B600008603648406A012109030840002813D054
:102B70003648007800280FD13148006800280BD172
:102B8000012032490870042004F076FB01202C4912
:102B90000860A0202C4908602848406AC0210840ED
:102BA000002813D02A48007800280FD12448006854
:102BB00000280BD1012026490870052004F05CFB99
:102BC00001201F490860B4201F4908601B48406A63
:102BD00020490840002813D01F48007800280FD152
:102BE0001748006800280BD101201B4908700620F7
:102BF00004F042FB012012490860A020124908603D
:102C00000E48406A032109020840002815D01348E5
:102C10000078002811D10A48006800E00DE0002883
:102C20000BD101200D490870072004F025FB01207D
:102C30000349086096200449086010BD1C04002068
:102C40006401002058010020680100205901002083
:102C50005A010020020C00005B0100205C010020F2
:102C600010B501218903394801F084F8002805D006
:102C700008210520000701F07DF803E00121344818
:102C800001F078F8002811D13248406A0121C902C8
:102C900088433049486200212E48203001730020CB
:102CA0002C494864C86302F035FB4CE001218903DC
:102CB000264801F05FF8002804D00121244801F0E3
:102CC00059F804E008210520000701F053F8002816
:102CD00015D12048406A0121890288431D49486274
:102CE00003211C482030017302F014FB194840787E
:102CF000022828D01748406D1649C86323E01548BC
:102D0000C06B1449C96C884209D112482030C07B7D
:102D1000002804D101210F482030017313E00D4831
:102D2000C06B0C49096D884209D10A482030C07B2C
:102D3000002804D1022107482030017303E0042158
:102D400004482030017300BF10BD0000000800508F
:102D5000001400501C04002010B500241248C07B51
:102D60001149897B88420DD00F48C17B001D445C0E
:102D7000011FC97B481C0A21FDF74AFAC8B20A495B
:102D8000C87300E00024002C0BD0882C09D0802CC4
:102D900007D0002C05D00548C088002801D102F0DA
:102DA00037FF204610BD0000BC040020A404002012
:102DB00070B594B038221E4906A8FDF7C7F91D4822
:102DC0000078012831D1002600201A49087000BF80
:102DD00021E0B100184A5058FDF7F9FE0391029026
:102DE000F00006A908180022144B04684168204628
:102DF000FDF7F8FE01910090039B029AFDF7F2FEA9
:102E000000220F4B05910490FDF766FCF2000D4B7C
:102E10009A1803C2761C072EDBDB0B4800F004FC7B
:102E2000002801D0FFF764FB00BF14B070BD0000A4
:102E3000D8750000040000207002002000A0A94006
:102E400000FEAF40F00400208C020020F8B50446DC
:102E50000020009000BF5420005D012801D1022015
:102E6000F8BD01215420015500BF2046FFF764F84A
:102E70000646206802F010FA00283DD1A06DFF211F
:102E80000131884302210843A0652068C068850796
:102E9000AD0F2068C068800880002168C860206885
:102EA00080680121C90708432168886013E0009801
:102EB000401C00901649009888420CD3A06D022156
:102EC000884310210843A06500BF0021542001550C
:102ED00000BF0120C4E720688168C90F0029E6D13E
:102EE0002068C06828432168C860A06D022188431B
:102EF00001210843A06503E0A06D10210843A065EF
:102F000000BF00215420015500BF3046A8E7000053
:102F100000F20200F0B585B005460C460020039093
:102F200002900121C9072869884203D0091D286938
:102F3000884200D100E000BF00BF5420405D01285E
:102F400002D1022005B0F0BD01215420415500BF3F
:102F5000286802F0B0F9002876D16068022874D0A1
:102F60000121C9072869884203D0091D28698842C0
:102F700008D128682168826A4B035B0B1A4382627E
:102F800000BFC6E02179CA06D20E0F219140286EFB
:102F9000884321684903490B002905D11F22920665
:102FA00021681140890E92E02178C907C90F0029D4
:102FB00001D000218BE0022221681140022901D1B9
:102FC000012184E0042221681140042901D1022159
:102FD0007DE0082221681140082901D1032176E013
:102FE000102221681140102901D104216FE0202214
:102FF00021681140202901D1052168E04022216883
:103000001140402901D1062161E080222168114050
:10301000802901D107215AE0FF22013221681140A5
:10302000914201D1082152E001225202216811404F
:10303000914201D109214AE0012292022168114006
:10304000914203D10A2142E0FAE0BAE00122D20221
:1030500021681140914201D10B2138E00122120375
:1030600021681140914201D10C2130E0012252032C
:1030700021681140914201D10D2128E001229203E3
:1030800021681140914201D10E2120E00122D2039A
:1030900021681140914201D10F2118E00122120450
:1030A00021681140914201D1102110E00122520407
:1030B00021681140914201D1112108E001229204BE
:1030C00021681140914201D1122100E000212279B2
:1030D000D206D20E91400843286660688008401CE2
:1030E000E969884215D82868226861680192836A74
:1030F000CF06FF0E0F22BA4093430F27BF06019A57
:103100003A40920ECF06FF0EBA401343836200BFCF
:1031100000BF286821680091A16801914269009967
:1031200009028A4300990B024C4F019939400B4028
:103130001A43426100BF2068C00FC007002821D099
:10314000474802F095F806464649206888421AD159
:10315000C0023040002816D1C80230430146404822
:1031600002F0C2F8404941480068FDF747F8401CAA
:103170000C214843029002E00298401E02900298FF
:103180000028F9D162E03A49206888420AD18002D9
:103190003040002806D1880230430146304802F012
:1031A000A3F853E03349206888424FD140023040B1
:1031B00000284BD1480230430146294802F094F8D8
:1031C00044E00121C9072869884203D0091D286904
:1031D000884208D128682168826A4B035B0B9A43B6
:1031E000826200BF00BF2068C00FC00700282DD03A
:1031F0001B4802F03DF806461A492068884207D16C
:10320000C202304690430146154802F06DF81DE0B9
:1032100017492068884207D1820230469043014610
:103220000F4802F061F811E01249206888420DD180
:103230004202304690430146094802F055F805E045
:10324000A86D20210843A8650120039000BF00213C
:103250005420415500BF039874E6000000FFFF07AB
:1032600008270140001000B0400D0300F8010020C5
:10327000004000B8002000B40121014A11707047DD
:103280000400002070477047FEB5044600200190FE
:10329000002500260090002C01D10120FEBD3C201D
:1032A000005D012800D100BF2069002805D0012160
:1032B00049052069884200D100BFA06D002807D1D0
:1032C000204600F04BF90020E06500215420015514
:1032D000206801F0E9FF002817D120688168964A2C
:1032E0001140012212071143816000BF93499448A5
:1032F0000068FCF783FF401C4000009002E000984B
:10330000401E009000980028F9D1206801F0CCFF01
:10331000002809D1A06D10210843A065E06D0121AE
:103320000843E06501200190206801F0C4FF0746D2
:10333000A06D10210840002878D1002FFCD1A06D8D
:103340000901884302210843A065206801F09CFF21
:1033500000283DD12068C06818218843A16808432F
:103360002168C8606068800F8007E16C08430643ED
:103370003C20005D01280BD16068800F800701218F
:103380000843216C0843616C0843A16C0843064361
:10339000206800696B4908403043216808610321B7
:1033A00089076068884213D04942606888420FD01C
:1033B0004900606888420BD0634880680F21890407
:1033C00088430F2292046168114008435E49886077
:1033D000207E8003617EC9030843A17E4903084320
:1033E000216B002902D00121090300E000210843DC
:1033F000E16808432169C90FC907002903D0216981
:103400004900490801E00121490508432C21095DD3
:103410004900084305432020005D01280FD1A07E0C
:10342000002804D101200004054308E07BE0A06DE2
:1034300020210843A065E06D01210843E065606A32
:10344000002806D0FF21C131606A0840A16A084304
:1034500005432068C0683D49084028432168C8608A
:10346000206800693A49084030432168086100211A
:10347000626B206801F03FFF3649A26B206801F0C3
:103480003AFF2069002807D12068806A0F21C943CC
:103490000843216888622AE00121490520698842A1
:1034A00025D1002008E08200216ED1400907090FD4
:1034B0000F2900D102E0401C0828F4D300BF0128E6
:1034C00007D12168896A0F22D24311432268916291
:1034D0000CE0217F491E4907CA0E0F21C9439140C4
:1034E000226E11432268926A2268916200BF2068AE
:1034F000C06819490840A84208D10020E065A06DC5
:103500000221884301210843A06512E0A06D022139
:10351000884310210843A065E06D01210843E06560
:103520000120019005E0A06D10210843A065012055
:1035300001900198B2E60000E8FFFF7F400D030014
:10354000F801002002FCFF1F002701401902FEFFC6
:1035500002FCFFDF04FFFF07E7FF3F8310B586B0E3
:103560000446142101A8FCF747FE2B492068884235
:1035700050D100BF294800680121090508432749A7
:10358000086008460068012109050840009000BF56
:1035900000BF00BF21484038406B012108431F494C
:1035A000403948630846406BC007C00F009000BF19
:1035B00000BFF7200190032002900020039001A992
:1035C0000520000700F0EAFA1548164908600520B2
:1035D0004860002113488160C16080210161490079
:1035E0004161C90081612021C1610902016200F0CD
:1035F00049F9002801D0FEF77BFF00BF094820658C
:10360000846200BF002211460C2000F095FC0C20C3
:1036100000F080FC06B010BD0024014040100240C4
:1036200008000240F002002070B50446206801F056
:1036300042FE00282AD100BF5420005D012801D19C
:10364000022070BD01215420015500BF2046FEF725
:10365000B9FC0546002D14D1A06D0E490840FF218C
:1036600001310843A0650020E0651C202168086046
:1036700000BF00215420015500BF206801F02CFE3E
:1036800005E000BF00215420015500E00225284636
:10369000D7E70000FEF1FFFFF8B504460E461746D7
:1036A000206801F008FE002850D100BF5420005DC2
:1036B000012801D10220F8BD01215420015500BF8D
:1036C0002068C068084000280DD1206801F0DCFDAA
:1036D000002802D0206801F0BBFD2068C0680121ED
:1036E00008432168C8602046FEF76CFC0546002DA3
:1036F0002DD1A06D17490840FF2101310843A06575
:103700000020E0651448216DC8621448216D0863EB
:103710001348216D48631C202168086000BF002108
:103720005420015500BF20684068102108432168DB
:1037300048602268114640313B463246206D00F019
:1037400001F90546206801F0C7FD00E00225284682
:10375000B1E70000FEF1FFFF7D1E00002B1F0000FF
:103760000D1F000070B504464548056820680668CE
:103770001C20216C0140042088402840002820D0D3
:103780000420304000281CD0206800682021084018
:10379000002805D12068006804218843216808605A
:1037A000374840681C22216C114004228A40104393
:1037B00033494860206B002860D02046216B884741
:1037C0005CE01C20216C0140022088402840002839
:1037D00028D002203040002824D020680068202112
:1037E0000840002808D1206800680A218843216821
:1037F0000860012125200155214841681C22206CC8
:1038000010400222824011431D48416000BF002148
:103810002420015500BFE06A00282FD02046E16A2D
:1038200088472BE01C20216C01400820884028405C
:10383000002823D00820304000281FD020680068CE
:103840000E218843216808600D4841681C22206CC5
:103850001040012282401143094841600120E06389
:1038600001212520015500BF00212420015500BF62
:10387000606B002802D02046616B884770BD000055
:103880000000024010B50446002C01D1012010BDFB
:103890002A4A2168881A1421FCF7B0FC80002064B1
:1038A000022125200155206800682549084021682B
:1038B0000860E168A068084321690843616908431A
:1038C000A1690843E1690843216A0843216809683E
:1038D0000843216808602046FEF70EFD0121890398
:1038E000A068884201D10020606020798006800EA7
:1038F000616C0860A16CE06C4860606800280CD0C6
:103900006068042809D82046FEF710FD0020216DCC
:103910000860616DA06D486003E00020206560656F
:10392000A0650020E06301212520015500BF002192
:103930002420015500BF0020A9E700000800024034
:103940000F80FFFFF8B504460D4616461F460020BF
:10395000009000BF2420005D012801D10220F8BDA5
:1039600001212420015500BF2520005D012844D1FC
:103970000221252001550020E063206800684008EE
:103980004000216808603B46324629462046FEF743
:10399000E1FC206B002806D0206800680E21084357
:1039A000216808600BE020680068042188432168D2
:1039B0000860206800680A21084321680860606C7C
:1039C0000068012109040840002805D0606C0068E7
:1039D00009120843616C0860206D002806D0206D34
:1039E0000068FF2101310843216D086020680068EC
:1039F000012108432168086008E08020E06300BFDF
:103A000000212420015500BF012000900098A6E766
:103A100070B5044600F0BEF906462546681C00282D
:103A200002D0054800782D1800BF00F0B3F9801BC4
:103A3000A842FAD370BD0000F4010020F8B5044696
:103A40000F4600BF00201F49087000BF48607D205E
:103A5000C000FEF7ABFD0646002E2CD104206060AE
:103A60002068042808D16068FEF744FD7D20C0006E
:103A7000FEF79CFD06461EE00020C0433860A568A6
:103A80000DE029466068FEF741FD7D20C000FEF78D
:103A90008DFD0646002E01D03D6005E06D1CE168FD
:103AA000A0684018A842ECD800BF0748406902212E
:103AB00088430549486100BF00200249087000BFE3
:103AC0003046F8BD280500200020024001200749AB
:103AD0004969C2071143054A516111464969C90F35
:103AE000C907002900D000207047000000200240D4
:103AF000F0B51FB4064614461D4600BF18480078AE
:103B0000012802D1022005B0F0BD0120144908703F
:103B100000BF002048607D20C000FEF747FD07463B
:103B2000002F15D1012E05D122462B460198FEF714
:103B3000FFFC03E021460198FEF70EFD7D20C0004A
:103B4000FEF734FD074607484069B0430549486120
:103B500000BF00200249087000BF3846D3E70000CC
:103B60002805002000200240002009494969C90FAA
:103B7000C90700290BD00749054A916006499160A1
:103B800011464969C90FC907002900D001207047B3
:103B90000020024023016745AB89EFCD70B5034695
:103BA0000A460021D7E001268E4014683440002CDC
:103BB00073D01579AD07AD0F012D04D01579AD0780
:103BC000AD0F022D18D198684E000325B54006466A
:103BD000AE4330464E00D568B540284398605868DB
:103BE00001258D400646AE433046102655683540C7
:103BF0002D098D40284358601579AD07AD0F032D71
:103C00000BD0D8684E000325B5400646AE4330467B
:103C10004E009568B5402843D8601579AD07AD0FC3
:103C2000022D15D1CD08AE001D462035A8594D07EF
:103C3000EE0E0F25B5400646AE4330464E07F60E53
:103C40001569B5402843CD08AD001E462036705199
:103C500018684E000325B5400646AE433046157938
:103C6000AD07AD0F4E00B54028431860032636045B
:103C700055683540002D6DD03A4D8E08B600A859D4
:103C80008D07EE0E0F25B5400646AE43304605259E
:103C90002D07AB4202D1002510E05BE0324DAB4274
:103CA00001D101250AE0314DAB4201D1022505E0E9
:103CB0002F4DAB4201D1032500E005258E07F60EFE
:103CC000B5402843274D8E08B600A851254D203514
:103CD00028680546A5432846012636045568354020
:103CE000002D02D00546254328461E4D203528606C
:103CF00068680546A5432846012676045568354080
:103D0000002D02D0054625432846164D2035686013
:103D1000144D603D28680546A54328460126360512
:103D200055683540002D02D00546254328460D4DE7
:103D3000603D286068680546A5432846012676054B
:103D400055683540002D02D0054625432846054DCF
:103D5000603D6860491C1568CD40002D00D022E709
:103D600070BD0000601802400004005000080050C0
:103D7000000C0050024613690B40002B01D00120BB
:103D800000E000207047002A01D0816100E08162DC
:103D9000704700000148006870470000EC010020F7
:103DA00070B50446002C01D1012070BD184821686F
:103DB00008601848216808602168606848602168C8
:103DC000A0688860FFF7E6FF05460CE0FFF7E2FF1A
:103DD000401B312807D92068C0684007400F0028E1
:103DE00001D00320E1E72068C0684007400F0028A9
:103DF000ECD120680169E068814203D02168E06865
:103E0000086102E00448216808600020CDE7000056
:103E1000CCCC000055550000AAAA0000014602487B
:103E20000A68106000207047AAAA000003480068D2
:103E3000034909784018014908607047EC010020E7
:103E4000F401002010B5002408480068FF2101316A
:103E5000084306490860032000F00AF8002801D052
:103E6000012401E000F034F8204610BD002002409B
:103E7000F8B5044600251348007800281ED01148E4
:103E800001787D20C000FCF7B9F9074639460E4895
:103E90000068FCF7B3F9064600F0AEFD00280BD130
:103EA000042C07D200222146401E00F045F80748A6
:103EB000046004E0012502E0012500E00125284618
:103EC000F8BD0000F4010020F8010020F0010020FE
:103ED00008B500BF0E480068012108430C4908607E
:103EE00008460068C007C00F009000BF00BF00BFB9
:103EF00007484038C06B8905084305494039C86305
:103F00000846C06B09040840009000BF00BF08BD10
:103F1000401002400146002909DB00BF00BFCB066C
:103F2000DB0E01229A40034B1A6000BF00BF00BFA6
:103F30007047000000E100E070B504460D461646EB
:103F40002946204602F0E4FF70BD000070B504462B
:103F50001148006803214902884320430E49086044
:103F60004815844216D10D49096806225143084676
:103F70000B49FCF743F9451C05E0002D01D06D1EEF
:103F800001E0032070BD0448406901218902084016
:103F90008842F2D00020F5E700700040F8010020D0
:103FA00040420F00FEB50446002700200290012188
:103FB00049042068084088427BD100200190704865
:103FC000C06BC902084000280ED100BF6C48C06B0E
:103FD00008436B49C8630846C06B09040840009059
:103FE00000BF00BF0120019066480068FF21013139
:103FF000084364490860FFF7CDFE064606E0FFF778
:10400000C9FE801B022801D9032706E05D4800682D
:10401000FF21013108400028F1D000BF002F4BD113
:1040200057484030C569032109020D40002D1AD0C0
:104030006069A84217D052484030C069884305469D
:104040004F484030C0690121090408434C494031C0
:10405000C8610846C06901210904884348494031C4
:10406000C8610846C561E807C00F002813D0FFF7F4
:1040700091FE064607E0FFF78DFE801B424988420D
:1040800001D9032706E03E484030C06902210840BC
:104090000028F0D000BF002F0CD139484030C06953
:1040A0000321090288436169084335494031C861E9
:1040B00003E00DE0029700E002970198012806D185
:1040C0002F48C06B0121090788432D49C86300BFF1
:1040D0002078C007C00F002809D029484030406927
:1040E00080088000616808432549403148612021EB
:1040F0002068084020280AD1214840304069032127
:1041000009038843A16808431D49403148610121E2
:10411000890320680840884213D11948403040691B
:10412000800080082169084315494031486109062B
:104130002069884205D11248C06889130843104994
:10414000C8600121C90220680840884215D10C4886
:1041500040304069032189038843E16808430849E6
:104160004031486101218903E068884205D1044853
:10417000C068890008430249C8600298FEBD00007B
:1041800000100240007000408813000070B5044623
:104190000D46002C01D1012070BD6B48006840071E
:1041A000400FA84218D268480068C008C0002843E1
:1041B00065490860FFF7EEFD064607E0FFF7EAFDF8
:1041C000801B6249884201D90320E5E75E48006808
:1041D0004007400FA842F1D1022120680840022880
:1041E00015D1042120680840042807D15848806868
:1041F000072109038843401855498860544880685E
:104200000F2109028843A16808435149886020783A
:10421000C007C00F002854D06068012808D14C485E
:10422000006801214904084000282ED10120B3E78D
:104230006068022808D14648006801214906084004
:10424000002822D10120A7E76068002808D1404853
:104250000068012189020840002816D101209BE74F
:104260006068032808D13A484030006A02210840BB
:1042700000280AD101208FE735484030C06902216B
:104280000840002801D1012086E731488068C00835
:10429000C000616808432E498860FFF77BFD064631
:1042A00007E0FFF777FD801B2849884201D90320EA
:1042B00072E727488068382108406168C900884251
:1042C000EFD1214800684007400FA84218D91E4886
:1042D0000068C008C00028431B490860FFF75AFD6A
:1042E000064607E0FFF756FD801B1849884201D9B2
:1042F000032051E7144800684007400FA842F1D15D
:10430000042120680840042808D11148806807214A
:1043100009038843E16808430D49886000F020F8EC
:104320000B4989680F2212021140090A8900094AC3
:10433000515CC906C90EC8400749086007480068B3
:10434000FFF796FD28E700000020024088130000D8
:104350000010024018760000F8010020F001002053
:10436000FEB5354880683821084000280DD1324814
:10437000006809020840C10A0120884000902F48C7
:104380000099FBF73BFF044654E02B488068382136
:104390000840082801D12A4C4CE027488068382181
:1043A0000840102834D12448C0688607B60F224838
:1043B000C068702108400009401C0190022E0FD0F7
:1043C000032E0CD11E480199FBF718FF1A49C96842
:1043D0007F2212021140090A484305460DE000BF42
:1043E00016480199FBF70AFF1349C9687F22120298
:1043F0001140090A4843054600BF00BF0E48C06887
:10440000400F471C39462846FBF7F8FE044611E0EA
:104410000948806838210840202801D1840209E039
:104420000548806838210840182802D17D242402DC
:1044300000E000242046FEBD001002400024F400ED
:1044400000127A00FEB50446002C01D10120FEBD09
:104450002078C007C00F00286FD0F7488768382140
:104460000F40C0688607B60F102F01D1032E01D070
:10447000082F0BD1F04800680121490408400028AA
:104480005BD06068002858D10120E0E700BF01211F
:1044900009046068884205D1E74800680843E64996
:1044A000086021E005210904606888420ED1E248D5
:1044B0000068012189040843DF4908600846006854
:1044C000012109040843DC4908600DE0DA4800686E
:1044D000012109048843D849086008460068012181
:1044E00089048843D449086000BF6068002812D05E
:1044F000FFF750FC054606E0FFF74CFC401B642824
:1045000001D90320A3E7CC480068012149040840F1
:104510000028F1D011E0FFF73DFC054606E0FFF76B
:1045200039FC401B642801D9032090E7C248006889
:104530000121490408400028F1D1022120680840E7
:10454000022873D1BC488068382108400746BA4821
:10455000C0688607B60F102F01D1022E01D0002FA0
:1045600036D1B5480068012189020840002804D0EE
:10457000E068002801D1012069E7AF4840687F2149
:1045800009028843616909020843AB494860002F6A
:1045900016D1084600680721C902884321690843EB
:1045A000A5490860084600680722D2021040C20AE6
:1045B000012090400146A148FBF720FEA049086079
:1045C000A0480068FFF754FC002849D001203EE7CE
:1045D000E06800282BD0984800680721C90288436A
:1045E0002169084394490860084600688915084312
:1045F00091490860FFF7CEFB054606E0FFF7CAFBCE
:10460000401B022801D9032021E78B4800680121C3
:10461000890208400028F1D0874840687F210902BC
:1046200088436169090208438349486018E0824869
:104630000068FF21013188437F490860FFF7AAFB2A
:10464000054606E0FFF7A6FB401B022801D9032020
:10465000FDE6794800680121890208400028F1D16F
:10466000082120680840082849D17348806838210B
:10467000084018280BD170484030006A02210840D9
:1046800000283CD0A069002839D10120DFE6A069CC
:1046900000281AD068484030006A01210843664962
:1046A00040310862FFF776FB054606E0FFF772FB34
:1046B000401B022801D90320C9E65F484030006A48
:1046C000022108400028F1D019E05B484030006A20
:1046D00040084000584940310862FFF75BFB05463F
:1046E00006E0FFF757FB401B022801D90320AEE686
:1046F00051484030006A022108400028F1D10421CD
:104700002068084004287CD1002001904A48806835
:104710003821084020280BD147484030C069022189
:10472000084000286ED0A06800286BD101208EE6DA
:104730004148C06B010F01208843002810D000BF02
:104740003D48C06B0121090708433B49C86308463F
:10475000C06B09040840009000BF00BF0120019019
:1047600039480068FF2101310840002816D1364839
:104770000068084334490860FFF70CFB054606E073
:10478000FFF708FB401B022801D903205FE62E48F3
:104790000068FF21013108400028F1D000BFA06867
:1047A000012808D124484030C0690121084322492A
:1047B0004031C86120E0A06805280FD11E48403074
:1047C000C069042108431C494031C8610846C069DA
:1047D0000121084318494031C8610DE016484030B6
:1047E000C0694108490014484030C161C0690421D2
:1047F000884311494031C86100BFA068002816D025
:1048000001E040E03EE0FFF7C5FA054607E0FFF7AC
:10481000C1FA401B0D49884201D9032017E606481A
:104820004030C069022108400028F0D01EE0FFF7A8
:10483000B1FA054614E00000001002400024F40024
:10484000F8010020F00100200070004088130000F3
:10485000FFF7A0FA401B6449884201D90320F6E51E
:104860006248C069022108400028F1D1019801285E
:1048700008D15E484038C06B0121090788435B4975
:104880004039C86300BFE06900285AD05748403813
:1048900080683821084010287ED0E069022851D174
:1048A0005248403800680121090688434F49403981
:1048B0000860FFF76FFA054606E0FFF76BFA401B4A
:1048C000022801D90320C2E5484840380068012188
:1048D000490608400028F0D1616A206A0843A16AAD
:1048E00009020843E16A0843216B08433F49403904
:1048F000C9683F4A114008433C494039C8600846EE
:104900000068012109060843384940390860084613
:10491000C0680904084335494039C860FFF73AFACE
:10492000054606E0FFF736FA401B022801D90320AE
:104930008DE52E48403800680121490608400028CE
:10494000F0D04EE02948403800680121090688432C
:104950002649403908600846C06880088000C86061
:104960000846C0682349084020494039C860FFF71D
:1049700011FA054607E0FFF70DFA401B022802D99D
:10498000032064E508E01948403800680121490621
:1049900008400028EFD124E0E069012800D156E565
:1049A00012484038C668B107890F206A814216D183
:1049B00070203040616A884211D17F20000230406F
:1049C000A16A090288420AD11F2040043040E16AEE
:1049D000884204D1710F4907206B814201D0012028
:1049E00035E5002033E50000881300004010024048
:1049F0008C80C11FFFFFFEEF70B504462546681E80
:104A00000949884201D901200CE0681E0749486124
:104A10000321081F02F07CFA002004498861072066
:104A20000861002070BD0000FFFFFF0000E000E013
:104A3000704770477047000030B502460B4600BF14
:104A40003C20805C012801D1022030BD01253C20A2
:104A5000855400BF02253D208554106841681068C8
:104A60008468164D1068A84206D10F252D0508460A
:104A7000A84301465868014370250846A8430146EB
:104A800018680143106841600C4D1068A84203D0BB
:104A90000B4D1068A84207D180252046A843044644
:104AA000986804431068846001253D20855400BF48
:104AB00000253C20855400BF0020C6E7002C0140A3
:104AC0000004004010B50446002C01D1012010BDA7
:104AD0003D20005D002805D100213C2001552046E5
:104AE00000F026F802213D200155211D206801F02B
:104AF0003DFA01214820015500BF3E2001553F20CD
:104B000001554020015541200155422001554320C7
:104B1000015500BF00BF44200155452001554620E6
:104B200001554720015500BF3D2001550020CEE72B
:104B300010B586B00446142101A8FBF75DFB2D4992
:104B40002068884235D100BF2B480068C91408434B
:104B50002949086008460068C9140840009000BF51
:104B600000BF00BF24484038406B01210843224960
:104B7000403948630846406BC007C00F009000BF33
:104B800000BF092040020190022002900020039003
:104B900004900220059001A905200007FEF7FEFF02
:104BA000002211460D20FFF7C7F90D20FFF7B2F9DB
:104BB0001DE012492068884218D100BF0E484038D5
:104BC000C06B022108430C494039C8630846C06BDA
:104BD00002210840009000BF00BF002211461020B3
:104BE000FFF7AAF91020FFF795F900E000BF06B023
:104BF00010BD0000002C01404010024000040040A5
:104C000001463D20405C012801D00120704702236D
:104C10003D2043540868C068012318430B68D860DE
:104C20000F4B0868984203D00E4B086898420FD18A
:104C3000086882680C4B1A40062A0FD0D81F82429F
:104C40000CD008680068012318430B68186005E061
:104C500008680068012318430B6818600020D5E736
:104C6000002C01400004004007000100F8B5044694
:104C70000D4600BF3C20005D012801D10220F8BD97
:104C800001213C20015500BF02213D200155206833
:104C9000866839480640FF210902304688430646A7
:104CA000206886602868502834D00CDC202851D039
:104CB00004DC00284CD0102852D14AE030284AD0D9
:104CC00040284DD13AE060282ED0702807D001212D
:104CD0000903401A02D0401A42D10DE041E0EB68CE
:104CE0006A68A968206801F089F9206886687720D9
:104CF00006432068866034E0EB686A68A96820682B
:104D000001F07CF92068806801218903084321684B
:104D1000886026E0EA686968206801F089F9502116
:104D2000206801F079F91CE0EA686968206801F000
:104D300098F96021206801F06FF912E0EA6869686B
:104D4000206801F075F94021206801F065F908E05C
:104D500000BF00BF00BF2968206801F05DF900E0D6
:104D600000BF00BF01213D20015500BF00213C20B4
:104D7000015500BF002082E788FFCEFF704700008A
:104D800010B5044620680069022108404008002848
:104D90001CD02068C06808404008002816D0481F72
:104DA0002168086101202077206880698007800FD2
:104DB000002803D02046FFF7E1FF05E0204600F081
:104DC000DBF8204600F0D9F8002020772068006941
:104DD00004210840800800281DD02068C0680840D1
:104DE0008008002817D0C843216808610220207776
:104DF00020688069032109020840002803D020466A
:104E0000FFF7BCFF05E0204600F0B6F8204600F0B2
:104E1000B4F8002020772068006908210840C00805
:104E200000281CD02068C0680840C008002816D0A0
:104E3000C84321680861042020772068C069800782
:104E4000800F002803D02046FFF798FF05E020469A
:104E500000F092F8204600F090F8002020772068BB
:104E6000006910210840000900281DD02068C06892
:104E700008400009002817D0C843216808610820AD
:104E800020772068C069032109020840002803D068
:104E90002046FFF773FF05E0204600F06DF820463E
:104EA00000F06BF80020207720680069C007C00F71
:104EB00001214840484000280CD02068C0680840C4
:104EC00048404840002805D0C81E21680861204697
:104ED00000F054F82068006980210840C0090028CB
:104EE0000BD02068C0680840C009002805D0C8431E
:104EF000216808612046FFF79CFD20680069FF21BA
:104F000001310840000A00280CD02068C0688021C8
:104F10000840C009002805D01648216808612046CD
:104F2000FFF786FD206800694021084080090028BD
:104F30000BD02068C06808408009002805D0C8430D
:104F400021680861204600F083F82068006920216C
:104F50000840400900280BD02068C068084040097C
:104F6000002805D0C843216808612046FFF762FD8C
:104F700010BD0000FFFEFFFF7047704727490988FA
:104F8000491C264A11802649097801290FD1254953
:104F90000988491C234A1180114609887D22120183
:104FA000914204DB00211F4A11801D4A11701E49E5
:104FB000097801290CD11D490988491C1B4A118017
:104FC000114609881E2903DB00211180164A117041
:104FD000124909887D22D20091420EDB00210F4A3E
:104FE0001180134A1170134A1170134A1170134A39
:104FF0001170134A1170134A11701349096801297D
:105000000AD112490968491E104A116011460968FF
:10501000002901D10C4A1160704700000C000020EB
:10502000BC01002010000020D50100200E0000204F
:105030005701002058010020590100205A0100208A
:105040005B0100205C010020640100206801002059
:10505000704700BFFEE7000010B51348406A1349CF
:105060000840002801D0012100E000210E486030F6
:105070000171C1780079814202D000200A4988700C
:10508000094860300079012802D1FCF765FA01E097
:10509000FCF762FA044860300179C17000F084FDC9
:1050A000FDF79AF810BD00001C0400200510000058
:1050B00010B50021C9432C48017741772B482A4974
:1050C0004039C8637D20800108640846406A012198
:1050D000084325494039486205212348C177042106
:1050E000203801732248204940398863002220215A
:1050F0002048FDF79BF900201B49403948641D48B2
:105100000068401C002807D01A480068002803D017
:1051100018480068002815D1322016490860084652
:1051200000680A308861144848601448C860032049
:10513000486112480C4940398865002220210D48F9
:10514000FDF78AF90B488069074940390865094825
:105150000068C8640748406848650648C0688865B4
:1051600004484069886410BD5C040020E903000025
:10517000FF4F000084040020FF7F0000DC050000DA
:1051800010B50446012211460148FEF7FCFD10BD92
:10519000000C0050002000BF05E0FF21C200034BBF
:1051A000D2185180401C0328F7DB7047A40400206C
:1051B00010B5012280211048FEF7E5FD01224021B3
:1051C0000D48FEF7E0FD0122910205200007FEF7E1
:1051D000DAFD0122D10305200007FEF7D4FD0122EC
:1051E000110305200007FEF7CEFD0122D1020520A4
:1051F0000007FEF7C8FD10BD0008005010B50022E2
:1052000080211248FEF7BFFD002240210F48FEF723
:10521000BAFD00220121890205200007FEF7B3FD37
:1052200000220121C90305200007FEF7ACFD002282
:105230000121090305200007FEF7A5FD0022012139
:10524000C90205200007FEF79EFD10BD00080050B2
:105250008168024A1140891C81607047E8FFFF7F26
:105260008168024A1140491C81607047E8FFFF7F56
:105270000146086807229205104070470146886879
:10528000022210404008704701468868C007C00FDE
:10529000012250405040704701468868C007C00F47
:1052A0000122504050407047014688680122120791
:1052B0001040000F704701468868042210408008A3
:1052C00070470146C868032292021040002801D1AD
:1052D000012070470020FCE78168024A1140091D47
:1052E00081607047E8FFFF7F026807239B059A43B0
:1052F0000A430260704730B5436904240D462540D7
:105300000724AC40A34304240C401546A5402B437E
:10531000436130BD19204001014988637047000096
:105320001C0400200EB5002000900190029043481C
:105330004349086000054860002141488160C16020
:105340000121490501610421416100210176417675
:10535000012181760721C1610021001D0177001F15
:105360004162816224300172012109032438016302
:105370000021416307218163002124300176243814
:10538000C164FDF781FF002801D0FDF7B1F80120CD
:105390000090002001902B48029069462848FDF7B4
:1053A000B9FD002801D0FDF7A3F82748009004209C
:1053B000019069462248FDF7ADFD002801D0FDF7B8
:1053C00097F8224800900820019069461C48FDF794
:1053D000A1FD002801D0FDF78BF81D4800900C209E
:1053E000019069461648FDF795FD002801D0FDF7AC
:1053F0007FF8184800901020019069461048FDF78A
:1054000089FD002801D0FDF773F81348009014209F
:10541000019069460A48FDF77DFD002801D0FDF79F
:1054200067F80E4800901820019069460448FDF77F
:1054300071FD002801D0FDF75BF80EBD002401408E
:105440008C02002004FFFF07020000040400000893
:105450001000001020000014400000188000001C04
:1054600008B500BF0A48806B0121084308498863DA
:105470000846806BC007C00F009000BF00BF00222D
:1054800011460920FEF758FD0920FEF743FD08BD2F
:105490000010024000B587B0142102A8FAF7ACFE54
:1054A00000BF5A48406B04210843584948630846E6
:1054B000406B04210840019000BF00BF00BF53486B
:1054C000406B20210843514948630846406B202126
:1054D0000840019000BF00BF00BF4C48406B012155
:1054E00008434A4948630846406BC007C00F019013
:1054F00000BF00BF00BF0846406B0221084343497C
:1055000048630846406B02210840019000BF00BF7D
:1055100000BF3E48406B082108433C4948630846A9
:10552000406B08210840019000BF00BF00223849AD
:105530003848FEF728FC002237493848FEF723FC9C
:1055400000222721890205200007FEF71CFC00220B
:105550000F213348FEF717FC2D48029001200390DD
:1055600000200490059002A92A48FEF717FB0320AB
:105570004003029000200390049002A92548FEF702
:105580000DFB01200290002003900220049002A94C
:105590002448FEF703FB24480290002003900120DA
:1055A000049002A91D48FEF7F9FA20480290012054
:1055B000039000200490059002A91848FEF7EEFA27
:1055C0009F2000020290012003900020049005908B
:1055D00002A905200007FEF7E1FA0820029000204A
:1055E00003900220049002A905200007FEF7D6FAD6
:1055F0000F2002900120039000200490059002A942
:105600000748FEF7CBFA07B000BD000000100240CB
:10561000C0800000000800507834000000040050F2
:10562000000C00500014005004C20000FB3D0000BC
:1056300010B5084808490860002048600749064836
:10564000C1608160FEF7ACFB002801D0FCF750FF81
:1056500010BD0000003000404C030020FF0F000090
:1056600000B587B00020039004900590069000904C
:1056700001900290164817490860174848600021B9
:10568000144881607D21C900C16000210161802131
:105690008161FFF717FA002801D0FCF729FF0120EC
:1056A0000003039003A90B48FFF7E0FA002801D09C
:1056B000FCF71EFF00200090029069460548FFF7A6
:1056C000BBF9002801D0FCF713FF07B000BD0000B4
:1056D00000040040240200203F06000010B53148BD
:1056E0000078082803D100F0B7F900F0BDF92D4883
:1056F000007806210840062817D100BF00BF00BF70
:1057000000BF00BFBFF34F8F00BF00BF00BF2648E0
:105710002649C86000BF00BF00BFBFF34F8F00BF66
:1057200000BF00BF00BF00BFFDE71E480078052195
:105730000840052810D11E48407801280CD01C488C
:105740002030007B002807D1022019494870002032
:1057500088701849087010BD1248007882210840EE
:10576000822811D11248407801280DD010482030ED
:10577000007B002808D102200D4948700020887065
:1057800001200C490870E6E70948406A0A490840C8
:10579000002802D0FCF7B2F901E0FCF7AFF900BF36
:1057A000D9E70000CC0100200400FA0500ED00E07C
:1057B0001C04002081010020051000000022D243BB
:1057C00003494A770221024A403A9170704700002B
:1057D0005C04002010B504460021C94303488177CA
:1057E00032210720FCF75AFC10BD00005C040020A9
:1057F00010B50446032000F01FF80021C9430148FA
:10580000417710BD5C04002010B50446012000F073
:1058100013F80021C9430148417710BD5C04002002
:1058200010B50446002000F007F80021C9430148E4
:10583000417710BD5C04002038B50446FDF710FA2E
:105840007E48C07B01280AD17C4840300078A042C5
:1058500002D02046FCF772FC0020C04338BD00BFD8
:105860007648007BA04202D10120C043F6E700BF8A
:105870000022012109037248FEF785FA00207149D0
:1058800008700022012149036D48FEF77CFA0020D0
:105890006D49087069482038406AC02108400028D6
:1058A00002D00220C043D9E7230001F023FB050406
:1058B00015500C8C8B0000216048817300205F49DB
:1058C0002039086482E001215C4881732038406DF2
:1058D0005A492039086479E058482038C06C574943
:1058E000203908640846C06BC96C884216DA012169
:1058F0005248817389035548FEF73CFA002804D0CA
:1059000001215348FEF736FA04E00821052000077C
:10591000FEF730FA002819D1801E9FE70021474882
:105920008173012189034948FEF724FA002805D034
:10593000082105200007FEF71DFA03E00121444875
:10594000FEF718FA002801D1801E87E73EE03B48A9
:105950002038006D3949203908640846C06B096D4C
:10596000884216DA01213548817389033748FEF7EA
:1059700001FA002804D001213548FEF7FBF904E0C4
:10598000082105200007FEF7F5F9002819D1801E2F
:1059900064E7002129488173012189032B48FEF720
:1059A000E9F9002805D0082105200007FEF7E2F9F3
:1059B00003E001212648FEF7DDF9002801D1801E11
:1059C0004CE703E000BF0420C04347E700BF1B488B
:1059D0002038406A012189020840002805D0174874
:1059E000807B002801D1001F38E714482038406A26
:1059F0000121C9020840002805D01048807B0128F9
:105A000001D1401F2AE70D48817B4173403004706B
:105A100001F01EFC01F06EFC002008492039C8602E
:105A200001210648C17300200A4B642200900348FC
:105A30003E3000F085F9002010E700003C04002013
:105A400000040050540100205501002000080050BF
:105A500000140050D55700000248406A014988628E
:105A600000BF70471C04002001200149C860704736
:105A70001C0400200248007D0149086170470000B5
:105A80001C04002000BFFEE7704710B50446FF214C
:105A9000F5311420FCF702FB10BD000010B50446E0
:105AA0000549C87FFFF7C8FE0021C9430248417776
:105AB0000521C17710BD00005C04002030B503460D
:105AC0000C461546002206E0184600F007F8910043
:105AD00060501B1D521CAA42F6D330BD0146086817
